:040000000BEF0AF008
:1000080000C018F00BC017F00CC016F00DC015F0AA
:10001800F2A283D08192819481968198819A819C61
:10002800819E8480808684948482050E0B6E0F0ED8
:100038000C6EF10E0D6E0D2EFED70C2EFCD70B2E6E
:10004800FAD78492050E0B6E0F0E0C6EF10E0D6E24
:100058000D2EFED70C2EFCD70B2EFAD784820B0E52
:100068000B6E260E0C6E5D0E0D6E0D2EFED70C2E31
:10007800FCD70B2EFAD70000000084920B0E0B6EF3
:10008800260E0C6E5D0E0D6E0D2EFED70C2EFCD7B7
:100098000B2EFAD7000000008492849080968494F6
:1000A8000901A26BA36B800EA319006E800E005C81
:1000B80002E10A0EA25D1FE28482070E0B6E170E84
:1000C8000C6E6A0E0D6E0D2EFED70C2EFCD70B2E65
:1000D800FAD700008492070E0B6E170E0C6E6A0E8C
:1000E8000D6E0D2EFED70C2EFCD70B2EFAD7000066
:1000F800A24BA32BD8D780968484150E0B6E4B0E7B
:100108000C6EBE0E0D6E0D2EFED70C2EFCD70B2ED0
:10011800FAD70000809684948490F29218C000F078
:0E01280017C00BF016C00CF015C00DF0110042
:0A01360000000000000000001200AD
:100140001D0E0C6E910E0D6E0D2EFED70C2EFCD7D3
:0201500012009B
:0C015200420E0D6E0D2EFED700001200B4
:10015E000901D1BF02D0809201D08082D1BD02D0E0
:10016E00829A01D0828AD1BB02D0829801D0828835
:10017E00D1B902D0829601D08286A1B102D08088F8
:10018E0001D08098808AD0DF809AD1B702D0809239
:10019E0001D08082D1B502D0829A01D0828AD1B3A9
:1001AE0002D0829801D08288D1B102D0829601D03D
:1001BE008286A1B102D0808801D08098808AB4DF77
:0E01CE00809AA1A102D0B5DF01D0BCDF1200E3
:0E01DC00026A016A006A086A036A000E1200D5
:1001EA000901CC6BCE6BCF6B100ED06F040ECF5DB6
:1001FA0029E2F00E836E120E006E000E016E830E5F
:10020A000024E16E0F0E0120E26ED01D006E00C0C8
:10021A00E6FF8CDF8BDF0F0E8314006E00C0CDF972
:10022A0000520AE0CEC9CCF9CD5304E0CD33CD9FBC
:10023A00CC2BFAD7040ECF6FD037D091040ECE272D
:0A024A00CF2BD4D7CCC900F012006E
:0A0254000D0E0D6E0D2EFED71200E8
:08025E000AAE029E000E120020
:100266000B840BAE3EEF01F0010E036E026A016ACB
:0A027600006A0A360232FF0E120081
:0E0280000901A191CCC9D1F96ADFA181120058
:10028E000B820BAE51EF01F0036802680168006843
:08029E000A360232FF0E1200C5
:0A02A6001D0E0D6E0D2EFED7120086
:1002B0000A6A0350D8A40A800750D8A40A820A50B8
:1002C000D8B4BBEF01F0030AD8B474EF01F00AB060
:1002D0006FEF01F006AEB9EF01F0B7EF01F002AE3B
:1002E000B7EF01F0B9EF01F00250800B0A6E029EE9
:1002F0000650800B069E0A18D8B485EF01F00A500C
:10030000D8B4B7EF01F0B9EF01F00750035CD8B4EF
:100310008FEF01F0D8A0ABEF01F0B1EF01F0065084
:10032000025CD8B499EF01F0D8A0ABEF01F0B1EFC7
:1003300001F00550015CD8B4A3EF01F0D8A0ABEFF9
:1003400001F0B1EF01F00450005CD8B4BBEF01F054
:10035000D8B0B1EF01F00A52D8B4B9EF01F0B7EF5D
:1003600001F00A52D8B4B7EF01F0B9EF01F0D8802C
:0E0370001200D8901200D880D884120012001B
:10037E00086A096A000E0762036444EF02F0025035
:10038E0006180A6E075003267E0ED8A0D5EF01F090
:10039E00035ED8B048EF02F0D9EF01F0035ED8A0AB
:1003AE004CEF02F0028E068E02C00EF001C00BF072
:1003BE0000C00DF000500402F4CF0CF00150050205
:1003CE00F4CF00F0F3CF08F00402F3500C26F450F3
:1003DE000822000E00220D500502F3500C26F45098
:1003EE000822000E002202500402F3500826F45098
:1003FE00002202500502016A000E0122F35000266F
:10040E00F45001220D500602F3500826F45000223B
:10041E00026A000E012202220B500602F350002641
:10042E00F4500122000E02220E500602F350012655
:10043E00F450022202BE2CEF02F0083600360136CE
:10044E0002360306D8B44CEF02F03FEF02F0D8802C
:10045E00800E08640030000E002201220222D8A075
:10046E003FEF02F0023201320032034A48EF02F04F
:10047E000AAE029E000E4EEF02F0010EA8DE4EEF07
:10048E0002F0020EFDDE4EEF02F0040EE5DE12006B
:10049E0010D0800E0901C76F1AD0C00EC76F17D0CB
:1004AE00940EC76F14D0D40EC76F11D0800EC76FC5
:1004BE000ED00901C751010AECE0C751020AEDE066
:1004CE00C751030AEDE0C751040AEDE0EFD7C805A6
:1004DE00006EC751002600C0C7F900C0D1F938DE42
:1004EE00A191CB6BCB51C925E96E000ECA21EA6EE4
:1004FE00EE520BE0CB51C925E96E000ECA21EA6E11
:0E050E00EECFCCF9B6DECB2BEDD7A1811200DB
:10051C000B6A0A6A096A00500402F4CF09F0F3CF9F
:10052C0008F001500502F4CF0BF0F3CF0AF00050A5
:10053C000502F3500926F4500A22E86A0B220150F6
:10054C000402F3500926F4500A22E86A0B2208C070
:10055C0000F009C001F00AC002F00BC003F0120059
:0E056C00ACB202D00000FCD7C7C9ADFF120030
:10057A00C7C904F0C8C905F004C002F005C003F0F9
:10058A00044A052AC9C900F0CAC901F00901C94BC0
:10059A00CA2B00C0E9FF01C0EAFF02C0E1FF03C0A5
:1005AA00E2FFEECFE6FF02C0E9FF03C0EAFFEE5228
:0E05BA0001E0E2D7C7C900F0C8C901F0120085
:0805C8000B6A0B86FF0E120006
:1005D000808C030E0C6E970E0D6E0D2EFED70C2E1A
:1005E000FCD700000000809C030E0C6E970E0D6E71
:0E05F0000D2EFED70C2EFCD7000000001200CE
:1005FE000C6A0E6A0250D8A418EF03F001C002F084
:10060E0000C001F0006A0E860250D8A418EF03F065
:10061E0001C002F0016A0E960E880250D8B42AEF7D
:10062E0003F00E50035ED8A4D8A02FEF03F0D8909D
:10063E0002BE34EF03F0003601360236032E1FEFF2
:10064E0003F02FEF03F0010E0C6EC1DD37EF03F058
:10065E00020E0C6E01DE37EF03F0040E0C6EF8DDA9
:02066E00120078
:10067000818E030E0C6E970E0D6E0D2EFED70C2E76
:0A068000FCD700000000819E12006C
:10068A000D6A086A0050D8B4000C04180A6E0ABE33
:10069A000D1E0B6A04AE02D0041E042A00AE02D05C
:1006AA00001E002A005004100A6E0ABE1FD0045011
:1006BA00085E003600340836045008260036060E56
:1006CA000C6E00340836045000B0085E00A00826FC
:1006DA0000360C2EF6D700A008260BB015D00DAEAA
:1006EA00000C001E002A081E082A000C04AE09D0BD
:1006FA0000BE04D00050086E006AF1D7006A002AD2
:10070A00000C001E0B2AD3D7082A0450085CD8A470
:0E071A00E6D7086A002A00AEE2D7FF0C1200F4
:1007280010D0800E0901C76F1AD0C00EC76F17D03E
:10073800940EC76F14D0D40EC76F11D0800EC76F38
:100748000ED00901C751010AECE0C751020AEDE0D9
:10075800C751030AEDE0C751040AEDE0EFD7C80519
:10076800006EC751002600C0C7F9A18100C0D1F9A9
:0E077800F2DCA191C9C9D1F9EEDCA181120019
:10078600C7C9E9FFC8C9EAFFEE5211E0C7C9E9FFC8
:10079600C8C9EAFFC9C9D9FFCAC9DAFFEE50DE18CF
:1007A60006E10901C74BC82BC94BCA2BE9D7C7C9F4
:1007B600E9FFC8C9EAFFC9C9D9FFCAC9DAFFDE50CD
:0C07C600EE5C006E016A000E015A120089
:1007D2000BDD00C0C7F90F0E8314006E02E039DD95
:0807E200FAD7C7C900F01200AC
:1007EA00BB50010F006E016A000E0122B9C904F064
:1007FA00000E056E8EDE060E026E00C004F001C009
:10080A0005F0025005E005320432059EFF0FFAD7C3
:10081A00040E016E04C000F0015004E0003600909E
:10082A00FF0FFBD7300E0014036E04C000F005C0A2
:10083A0001F001320032019E01320032019E00C0F5
:0C084A0067FF0F0E6616035066121200C6
:10085600FF0E0901AC6FFF0EAD6FFF0EAE6FFF0E00
:10086600AF6FC26A0401891D006E0050C1160F0EDB
:08087600C012C08EC280120006
:10087E00929A929894969498949A9292809A80983A
:10088E008092829A8298829654DC53DC52DC828863
:10089E008286808A49DC809A4CDC808A45DC809A8C
:1008AE0048DC808A41DC809A44DC8296808A3CDC7B
:1008BE00809A3FDC808A38DC809A82988082808A97
:1008CE0033DC809A36DC80928286808A2DDC809A98
:1008DE008296808A29DC809A2CDC808A25DC809A9C
:1008EE008286808A21DC809A24DC8296808A1CDCB7
:1008FE00809A8082828A82888286808A15DC809A9B
:08090E0018DC0901A1811200AF
:100916000900F5CFE6FF0006FBE10106F9E112004A
:0A0926009492BA840C0E66121200BF
:10093000BB50010F006E016A000E0122B9C904F01C
:10094000000E056EEBDD060E026E00C004F001C065
:1009500005F0025005E005320432059EFF0FFAD77C
:10096000040E016E04C000F0015004E00036009057
:10097000FF0FFBD7300E0014036E04C000F005C05B
:1009800001F001320032019E01320032019E00C0AE
:0C099000BEFF0F0EBD160350BD1212007A
:08099C00676A6698669A120072
:0809A400BE6ABD98BD9A120065
:0A09AC009494BA840C0EBD121200E0
:1009B6006C0E09019D6F050E9E6FC70E9F6F090E87
:1009C600A06FCE0E996F0F0E9A6F000E9B6F000EE2
:1009D6009C6F0C0EA86F140EA96F000EAA6F000E66
:1009E600AB6FFF0EA46FFF0EA56F000EA66F000E75
:1009F600A76FAC8A900EAB6E948E949C9EAA03D081
:080A0600AECF00F0FBD7120097
:100A0E000450000A12E10550000A0FE10650000AD8
:100A1E000CE10750000A09E1FF0E006EFF0E016E99
:100A2E007F0E026EFF0E036EA7D0086A096A07508A
:100A3E00D8B4B2EF05F00350D8B4B6EF05F00250BB
:100A4E0006180A6E028E068E0E6A02C008F001C0EB
:100A5E000CF000C00DF004500D5E0550D8A0053C02
:100A6E000C5E0650D8A0063C085E086A0C6A0D6A39
:100A7E00D8A049EF05F0D890023201320032083288
:100A8E00010E0E6E0750035ED8A056EF05F07E0ED7
:100A9E000E240326D8B0BBEF05F05CEF05F07E0EFA
:100AAE000E240326D8A0C0EF05F0180E0B6E0D36DF
:100ABE000C3608360036013602360E360450005E0D
:100ACE000550D8A0053C015E0650D8A0063C025E3B
:100ADE0006340E120EA077EF05F00D8082EF05F0B2
:100AEE00045000260550D8B0053C01260650D8B05B
:100AFE00062802260D900B2E5EEF05F0A8EF05F0EE
:100B0E00D8900036013602360E360450005E05507F
:100B1E00D8A0053C015E0650D8A0063C025E063405
:100B2E000E10010B0D26D8B00C2AD8B4082AD8A462
:100B3E00A8EF05F008320C320D32032AD8B4BBEF01
:100B4E0005F00AAE089E0850026E0C50016E0D5054
:100B5E00006EC3EF05F0010E30DDC3EF05F0020E9F
:100B6E00EEEC00F0C3EF05F0040E47EC01F0C3EF1E
:0A0B7E0005F0080E33EC01F0120040
:100B88000901BC6BB9C9E9FFBAC9EAFFEECFBBF9E5
:100B9800BB51000A0EE0BBC9C7F9E4DC0901BC2B54
:100BA800BC51B925E96E000EBA21EA6EEECFBBF949
:040BB800EFD7120061
:100BBC000050086E0150006E016A026A036A0B6AEB
:100BCC000C6A960E036E0A6A00C001F008C000F0B1
:080BDC00086A026A0EDD120036
:100BE400C26A0401891D006E0050C1160F0EC012A6
:100BF400C08EB9C900F00036009000360090005055
:100C0400C212C28053EC01F0C282C2A201D0FDD74D
:100C1400C4CF01F0006A00C0BAF901C0BBF9C350E7
:100C24000012000E011200C0BAF901C0BBF9C29053
:100C3400000E0014026E0150800B036E000E0318A8
:100C440002E1000E021803E00901BA6BBB6BBAC9DA
:080C540000F0BBC901F0120021
:100C5C000901B56BB66B800EB619006E800E005C88
:100C6C0002E1080EB55D19E2B5C902F0B9C900F090
:100C7C00BAC901F0025005E001320032019EFF0FAB
:100C8C00FAD7010E0014006E00B002D0809E01D085
:0E0C9C00808E98DCB54BB62BDED7E4DC120060
:100CAA00010E0901D16FAFEC00F0010EC76F010E02
:100CBA00C86FE90EC96F060ECA6F4FEC02F0B56B2A
:100CCA00B66B800EB619006E800E005C02E1040E4F
:100CDA00B55DD8B0BBD0B00EB525E96E090EB62108
:100CEA00EA6EEE50000A0EE1B00EB525B96F090E94
:100CFA00B621BA6F69DDB9C9E1FFBAC9E2FF00C01E
:100D0A00E6FFE9D7B00EB525E96E090EB621EA6EFF
:100D1A00EE50010A08E1B00EB525E16E090EB621C2
:100D2A00E26E370EE66EB00EB525E96E090EB621F3
:100D3A00EA6EEE50020A08E1B00EB525E16E090E20
:100D4A00B621E26E380EE66EB00EB525E96E090ED2
:100D5A00B621EA6EEE50030A08E1B00EB525E16E3F
:100D6A00090EB621E26E390EE66EB00EB525E96EB1
:100D7A00090EB621EA6EEE50050A08E1B00EB52555
:100D8A00E16E090EB621E26E340EE66EB00EB5259E
:100D9A00E96E090EB621EA6EEE50060A08E1B00EB7
:100DAA00B525E16E090EB621E26E350EE66EB00E7D
:100DBA00B525E96E090EB621EA6EEE50070A08E17A
:100DCA00B00EB525E16E090EB621E26E360EE66E5C
:100DDA00B00EB525E96E090EB621EA6EEE50090A83
:100DEA0008E1B00EB525E16E090EB621E26E310EAC
:100DFA00E66EB00EB525E96E090EB621EA6EEE5022
:100E0A000A0A08E1B00EB525E16E090EB621E26EB6
:100E1A00320EE66EB00EB525E96E090EB621EA6EFF
:100E2A00EE500B0A08E1B00EB525E16E090EB621A7
:100E3A00E26E330EE66E020EC76FB551010FC86F30
:100E4A002A0EC96F6CDCB54BB62B3BD7B00EC76FF9
:100E5A00090EC86FE40EC96F060ECA6F8FDC000E4A
:100E6A00011802E1000E001857E1010E0901D16FC5
:100E7A00AFEC00F0010EC76F050EC86FF80EC96F10
:100E8A00060ECA6F4FEC02F0020EC76F040EC86F4F
:100E9A001D0EC96F070ECA6F4FEC02F0050E0B6EDE
:100EAA000F0E0C6EF10E0D6E0D2EFED70C2EFCD70A
:100EBA000B2EFAD7808684948480150E0B6E4B0E07
:100ECA000C6EBE0E0D6E0D2EFED70C2EFCD70B2E01
:100EDA00FAD7000080968494150E0B6E4B0E0C6E9A
:100EEA00BE0E0D6E0D2EFED70C2EFCD70B2EFAD78A
:100EFA00000080968484150E0B6E4B0E0C6EBE0E8F
:100F0A000D6E0D2EFED70C2EFCD70B2EFAD7000035
:100F1A0084948096849055D00901010ED16FAFEC6C
:100F2A0000F0010EC76F010EC86F280EC96F070EB9
:100F3A00CA6F4FEC02F0B06BB16BB26BB36BB46BB0
:100F4A008482090E0B6E1E0E0C6EE40E0D6E0D2EB3
:100F5A00FED70C2EFCD70B2EFAD700008492B74B83
:100F6A00B82B000EB81902E1030EB71901E101D03E
:100F7A0097D6010ED16FAFEC00F0010EC76F010ECC
:100F8A00C86F000EC96F070ECA6F4FEC02F0020E4F
:100F9A00C76F010EC86F0D0EC96F070ECA6F4FECEF
:100FAA0002F08482520E0B6E2B0E0C6E000E0D6E2A
:100FBA000D2EFED70C2EFCD70B2EFAD700008492EA
:040FCA006FD61200CC
:100FCE00AECF01F0ABA202D0AB98AB8801C000F05F
:020FDE001200FF
:100FE0000901C56BC66BB9C9C1F9BAC9C2F9BBC998
:100FF000C3F9BCC9C4F9C451FF0A08E1C351FF0ACF
:1010000005E1C251FF0A02E1C151FF0A0DE1BDC96C
:10101000C7F9BEC9C8F99F0EC96F040ECA6FBDECEF
:1010200002F0030E006EF1D1010EBF6FC3AF0ED000
:10103000800EC319006E00C0C3F9BF2BBDC9E1FF0C
:10104000BEC9E2FF2D0EE66EBD4BBE2B000E006E3C
:10105000C41908E10050C31905E10050C21902E1AA
:10106000C151000A0CE1BDC9C7F9BEC9C8F99D0E3E
:10107000C96F040ECA6FBDEC02F0006AC6D1C4513C
:10108000FF0A08E1C351000A05E1C251000A02E16A
:10109000C151000A0DE1BDC9C7F9BEC9C8F9850E25
:1010A000C96F040ECA6FBDEC02F0BFC900F0ADD12C
:1010B000000E046E000E056E000E066E7F0E076EAB
:1010C000C1C900F0C2C901F0C3C902F0C4C903F02C
:1010D00058EC01F0010ED8B0000E006E00521CE07A
:1010E000C1C900F0C2C901F0C3C902F0C4C903F00C
:1010F000000E046E000E056E200E066E820E076E48
:10110000BFEC01F000C0C1F901C0C2F902C0C3F9CF
:1011100003C0C4F9C607CCD7000E046E000E056EDE
:10112000200E066E820E076EC1C900F0C2C901F022
:10113000C3C902F0C4C903F058EC01F0000ED8B0E6
:10114000010E006E00521CE0C1C900F0C2C901F0DE
:10115000C3C902F0C4C903F0CD0E046ECC0E056EF7
:101160004C0E066E7B0E076EBFEC01F000C0C1F99D
:1011700001C0C2F902C0C3F903C0C4F9C62BCCD761
:10118000FF0EC115086EFF0EC215096E7F0EC31546
:101190000A6E000EC4150B6E08C004F009C005F0FD
:1011A0000AC006F00BC007F0043604900536063678
:1011B0000736000EC115006E000EC215016E000E3E
:1011C000C315026EFF0EC415036E00C0C1F901C045
:1011D000C2F902C0C3F903C0C4F90450C111006EC2
:1011E0000550C211016E0650C311026E0750C411A2
:1011F000036E00C0C1F901C0C2F902C0C3F903C047
:10120000C4F97F0EC45D006E00C0C0F9010EC46F4A
:1012100000C004F0C1C900F0C2C901F0C3C902F0A6
:10122000C4C903F0045007E00036009001360236CE
:101230000336FF0FF8D700C0C1F901C0C2F902C0E0
:10124000C3F903C0C4F9BDC9E1FFBEC9E2FFC4517F
:10125000300FE66EBD4BBE2B800EC619006E800EA1
:10126000010A005C08E3800E060A006E800EC619B3
:10127000005C01E30AD0BDC9E1FFBEC9E2FF2E0E4A
:10128000E66EBD4BBE2B010EC56F060EC06FC05182
:10129000000A54E0C46BC1C900F0C2C901F0C3C95F
:1012A00002F0C4C903F0003600900136023603365E
:1012B00000360090013602360336C1510026C25175
:1012C0000122C3510222C451032200C0C1F901C04E
:1012D000C2F902C0C3F903C0C4F9C1C900F0C2C950
:1012E00001F0C3C902F0C4C903F000360090013612
:1012F0000236033600C0C1F901C0C2F902C0C3F909
:1013000003C0C4F9BDC9E1FFBEC9E2FFC451300F3B
:10131000E66EBD4BBE2BC551000A0EE1C607C65195
:10132000000A0AE1BDC9E1FFBEC9E2FF2E0EE66E6A
:10133000BD4BBE2B010EC56FC007A9D7FF0EBD2543
:10134000E96EFF0EBE21EA6EEE50300A05E1010E95
:10135000BD5F000EBE5BF2D7FF0EBD25E96EFF0E2E
:10136000BE21EA6EEE502E0A04E1010EBD5F000EB2
:10137000BE5BC651000A43E0BDC9E1FFBEC9E2FF42
:10138000650EE66EBD4BBE2B800EC619006E800E3C
:10139000000A005C0BE2BDC9E1FFBEC9E2FF2D0EF1
:1013A000E66EBD4BBE2BC6510008C66FC6C9C0F95C
:1013B000800E090A006E800EC619005C0FE20A0E4C
:1013C000046EC0C900F045EC03F0BDC9E1FFBEC921
:1013D000E2FF0050300FE66EBD4BBE2B0A0E046ECE
:1013E000C0C900F045EC03F008C000F0BDC9E1FF42
:1013F000BEC9E2FF0050300FE66EBD4BBE2BBDC92B
:0C140000E1FFBEC9E2FFE66A006A1200CC
:0A140C00000E9EBA010E006E1200E1
:10141600A6EC19F00F01386B396B3A6B3B6B3C6BE2
:1014260092809284929692989480929A929C929E9E
:1014360094949380F19CF292F288F28EBA80BA82EA
:10144600F90EBB6ED2EC04F0D6EC04F00901B96BD0
:1014560098EC04F0BA80BA82F90EBB6ECEEC04F0BA
:1014660093EC04F00901B96BF5EC03F02BEC04F0F6
:10147600936A966A760ED36E3FEC04F0010ED16F36
:10148600AFEC00F00C0ED16FAFEC00F00BDC010EF0
:10149600C76F030EC86F1E0EC96F060ECA6F4FECDC
:1014A60002F0020EC76F040EC86F130EC96F060E48
:1014B600CA6F4FEC02F0150E0B6E4B0E0C6EBE0E85
:1014C6000D6E0D2EFED70C2EFCD70B2EFAD7000074
:1014D600010ED16FAFEC00F0010EC76F020EC86FA0
:1014E600F80EC96F050ECA6F4FEC02F0020EC76FF9
:1014F600030EC86F070EC96F060ECA6F4FEC02F0D7
:101506000B0E0B6E260E0C6E5D0E0D6E0D2EFED79F
:101516000C2EFCD70B2EFAD700000000B886010E61
:10152600B06EA00EAF6EAC84DBEC04F0030E0B6E57
:10153600080E0C6E770E0D6E0D2EFED70C2EFCD7F8
:101546000B2EFAD72B0EB96F060EBA6FC4EC05F048
:10155600050E0B6E0F0E0C6EF10E0D6E0D2EFED7D8
:101566000C2EFCD70B2EFAD7B40EB96F060EBA6F37
:10157600C4EC05F0090E0B6E1E0E0C6EE40E0D6E1D
:101586000D2EFED70C2EFCD70B2EFAD70000C70E59
:10159600B96F060EBA6FC4EC05F08D0EB96F060E64
:1015A600BA6FC4EC05F03D0EB96F060EBA6FC4EC07
:1015B60005F0650EB96F060EBA6FC4EC05F0BB0EEA
:1015C600B96F080EBA6FC4EC05F0E30EB96F080EDA
:1015D600BA6FC4EC05F0A70EB96F080EBA6FC4EC6B
:1015E60005F06C0EB96F080EBA6FC4EC05F0890EE3
:1015F600B96F080EBA6FC4EC05F04F0EB96F090E3D
:10160600BA6FC4EC05F0950EB96F070EBA6FC4EC4D
:1016160005F0AD0EB96F070EBA6FC4EC05F0760E85
:10162600B96F070EBA6FC4EC05F0370EB96F070E27
:10163600BA6FC4EC05F0660EB96F090EBA6FC4EC4A
:1016460005F0310EB96F090EBA6FC4EC05F0F60E4F
:10165600B96F080EBA6FC4EC05F0130EB96F090E18
:10166600BA6FC4EC05F0570EB96F070EBA6FC4EC2B
:1016760005F02C0EB96F080EBA6FC4EC05F04C0ECF
:10168600B96F080EBA6FC4EC05F00B0EB96F080EF1
:10169600BA6FC4EC05F0CA0EB96F070EBA6FC4EC88
:1016A60005F0EA0EB96F070EBA6FC4EC05F0600ECE
:1016B600B96F020EBA6FC4EC05F03D0EB96F020E9B
:1016C600BA6FC4EC05F0200EB96F020EBA6FC4EC07
:1016D60005F0B40EB96F020EBA6FC4EC05F0010E38
:1016E600D16FAFEC00F082A027D00901010EC76FC1
:1016F600010EC86FA10EC96F020ECA6F4FEC02F041
:10170600820EB96F020EBA6FC4EC05F08192819415
:1017160081968198819A819C819E0B0E0B6E260E76
:101726000C6E5D0E0D6E0D2EFED70C2EFCD70B2EFD
:10173600FAD7000000000BD00901010EC76F010E99
:10174600C86F0E0EC96F020ECA6F4FEC02F080A46E
:1017560034D0010EC76F010EC86FF60EC96F010EA9
:10176600CA6F4FEC02F0D40EB96F010EBA6FC4EC1B
:1017760005F0818880968484818A8482150E0B6E9A
:101786004B0E0C6EBE0E0D6E0D2EFED70C2EFCD71C
:101796000B2EFAD7000080968494819A290E0B6E40
:1017A600960E0C6E7F0E0D6E0D2EFED70C2EFCD7F0
:1017B6000B2EFAD7819884920AD0010EC76F010EBC
:1017C600C86FC20EC96F010ECA6F4FEC02F0020E4F
:1017D600C76F0C0EC86FDF0EC96F94EC03F0020ED4
:1017E600C76F0D0EC86F430EC96F94EC03F0B96B4B
:1017F600F2EC05F000C00CF201C00DF2DEEC05F0D3
:10180600000E046E400E056E1C0E066E8B0E076EE5
:10181600BFEC01F0000E046E000E056E000E066EA3
:10182600890E076E07EC05F000C094F901C095F922
:1018360002C096F903C097F9000E046E000E056EFD
:10184600200E066E820E076E07EC05F000C094F9B6
:1018560001C095F902C096F903C097F900C0B9F91D
:1018660001C0BAF902C0BBF903C0BCF9850E090173
:10187600BD6F090EBE6FF0EC07F0896B020EC76FE5
:10188600010EC86F7D0EC96F030ECA6F4FEC02F0D2
:10189600020EC76F080EC86F850EC96F090ECA6F94
:1018A6004FEC02F0050E0B6E0F0E0C6EF10E0D6E68
:1018B6000D2EFED70C2EFCD70B2EFAD794C904F0AA
:1018C60095C905F096C906F097C907F0000E006E97
:1018D600000E016E480E026E830E036E58EC01F088
:1018E600010ED8B0000E006E005221E0000E046E0C
:1018F600000E056E700E066E830E076E94C900F01C
:1019060095C901F096C902F097C903F058EC01F0A9
:10191600010ED8B0000E006E005209E081823F0E23
:1019260003017C6F3F0E0901B96F98EC04F094C96E
:1019360004F095C905F096C906F097C907F0000EA0
:10194600006E000E016E700E026E830E036E58EC72
:1019560001F0010ED8B0000E006E005221E0000E1C
:10196600046E000E056E0C0E066E840E076E94C98C
:1019760000F095C901F096C902F097C903F058EC3A
:1019860001F0010ED8B0000E006E005209E081820F
:10199600800E03017C6F800E0901B96F98EC04F08C
:1019A60094C904F095C905F096C906F097C907F0E1
:1019B600000E006E000E016E0C0E026E840E036E9B
:1019C60058EC01F0010ED8B0000E006E005221E076
:1019D600000E046E000E056E700E066E840E076E07
:1019E60094C900F095C901F096C902F097C903F0B1
:1019F60058EC01F0010ED8B0000E006E005209E05E
:101A06008182FF0E03017C6FFF0E0901B96F98EC0E
:101A160004F094C904F095C905F096C906F097C973
:101A260007F0000E006E000E016E380E026E830E79
:101A3600036E58EC01F0010ED8B0000E006E005295
:101A460019E0000E046E000E056E480E066E830E3B
:101A5600076E94C900F095C901F096C902F097C9BE
:101A660003F058EC01F0010ED8B0000E006E0052E3
:101A7600D8A4819294C904F095C905F096C906F0D8
:101A860097C907F0000E006E000E016E200E026E62
:101A9600820E036E58EC01F0010ED8B0000E006EF7
:101AA600005221E0000E046E000E056E700E066EEA
:101AB600820E076E94C900F095C901F096C902F02E
:101AC60097C903F058EC01F0010ED8B0000E006E75
:101AD600005209E081843F0E03017C6F3F0E09012D
:101AE600B96FF5EC03F094C904F095C905F096C9F1
:101AF60006F097C907F0000E006E000E016E200E6C
:101B0600026E810E036E58EC01F0010ED8B0000E85
:101B1600006E005221E0000E046E000E056E200ECF
:101B2600066E820E076E94C900F095C901F096C93B
:101B360002F097C903F058EC01F0010ED8B0000E80
:101B4600006E005209E08184800E03017C6F800ED6
:101B56000901B96FF5EC03F094C904F095C905F0D5
:101B660096C906F097C907F0000E006E000E016ECA
:101B7600000E026E7F0E036E58EC01F0010ED8B017
:101B8600000E006E005221E0000E046E000E056E7F
:101B9600200E066E810E076E94C900F095C901F0FD
:101BA60096C902F097C903F058EC01F0010ED8B0BF
:101BB600000E006E005209E08184FF0E03017C6F67
:101BC600FF0E0901B96FF5EC03F094C904F095C94D
:101BD60005F096C906F097C907F0000E006E000ED4
:101BE600016E700E026E820E036E58EC01F0010E4D
:101BF600D8B0000E006E005219E0000E046E000E02
:101C0600056E080E066E830E076E94C900F095C920
:101C160001F096C902F097C903F058EC01F0010EE5
:101C2600D8B0000E006E0052D8A4819406EC0AF0DB
:101C36000052D8B4EEEF14F0E7EC07F000C098F9C4
:101C460049EF14F08192819481968198819A819CC2
:101C5600819ECB0E0901B96F030EBA6FC4EC05F075
:101C6600EEEF14F01F0E0B6E710E0C6E1E0E0D6E47
:101C76000D2EFED70C2EFCD70B2EFAD70000AB0E7E
:101C8600B96F030EBA6FC4EC05F0930EB96F030E6D
:101C9600BA6FC4EC05F0620EB96F030EBA6FC4ECEE
:101CA60005F0000EB96F030EBA6FC4EC05F0EEEF47
:101CB60014F081823F0E03017C6F3F0E0901B96F5C
:101CC60098EC04F0EB0E0901B96F020EBA6FC4EC82
:101CD60005F0EEEF14F08182800E03017C6F800E1A
:101CE6000901B96F98EC04F0D20E0901B96F020E22
:101CF600BA6FC4EC05F0EEEF14F08182FF0E03011B
:101D06007C6FFF0E0901B96F98EC04F04C0E0901C7
:101D1600B96F030EBA6FC4EC05F0EEEF14F08192C2
:101D2600390EB96F030EBA6FC4EC05F0EEEF14F07E
:101D3600190EB96F030EBA6FC4EC05F0BB0EB96F7E
:101D4600000EBA6FC4EC05F0A10EB96F000EBA6FA3
:101D5600C4EC05F0880EB96F000EBA6FC4EC05F03E
:101D6600EEEF14F081843F0E03017C6F3F0E0901F4
:101D7600B96FF5EC03F0020E0901B96F010EBA6FE7
:101D8600C4EC05F0EEEF14F08184800E03017C6F45
:101D9600800E0901B96FF5EC03F0E90E0901B96F80
:101DA600000EBA6FC4EC05F0EEEF14F08184FF0E5E
:101DB60003017C6FFF0E0901B96FF5EC03F0D30E3A
:101DC6000901B96F000EBA6FC4EC05F0EEEF14F01E
:101DD6008194750EB96F000EBA6FC4EC05F0EEEF84
:101DE60014F08186380EB96F000EBA6FC4EC05F098
:101DF600EEEF14F081962D0EB96F000EBA6FC4EC9B
:101E060005F0EEEF14F08188190EB96F000EBA6F67
:101E1600C4EC05F0EEEF14F08198600EB96F000E79
:101E2600BA6FC4EC05F0EEEF14F0500EB96F000E69
:101E3600BA6FC4EC05F0850EB96F090EBA6FC4EC23
:101E460005F0EEEF14F08480430EB96F000EBA6F02
:101E5600C4EC05F0150E0B6E4B0E0C6EBE0E0D6E21
:101E66000D2EFED70C2EFCD70B2EFAD70000849031
:101E7600EEEF14F0818AA10EB96F010EBA6FC4ECB1
:101E860005F0150E0B6E4B0E0C6EBE0E0D6E0D2E66
:101E9600FED70C2EFCD70B2EFAD70000819AEEEF58
:101EA60014F0818C8C0EB96F010EBA6FC4EC05F07C
:101EB600520E0B6E2B0E0C6E000E0D6E0D2EFED7F7
:101EC6000C2EFCD70B2EFAD70000819C760EB96F2C
:101ED600010EBA6FC4EC05F0EEEF14F0020E83119A
:101EE600006E84C901F0000E011200C083F901C022
:101EF60084F900C0B9F901C0BAF92EEC06F0050E56
:101F06000B6E0F0E0C6EF10E0D6E0D2EFED70C2EF7
:101F1600FCD70B2EFAD7010ED16FAFEC00F0020EF4
:101F2600C76F010EC86FB20EC96F010ECA6F4FECB4
:101F360002F0020EC76F120EC86FAF0EC96F010E08
:101F4600CA6F4FEC02F0620EB96F010EBA6FC4ECA5
:101F560005F0050E0B6E0F0E0C6EF10E0D6E0D2EAE
:101F6600FED70C2EFCD70B2EFAD7010ED16FAFEC95
:101F760000F0EEEF14F0020E8319006E84C901F032
:101F8600000E011A00C083F901C084F900C0B9F936
:101F960001C0BAF92EEC06F0050E0B6E0F0E0C6E94
:101FA600F10E0D6E0D2EFED70C2EFCD70B2EFAD78A
:101FB600010ED16FAFEC00F0020EC76F010EC86FB5
:101FC600300EC96F010ECA6F4FEC02F0020EC76FDA
:101FD600120EC86F2C0EC96F010ECA6F4FEC02F0BD
:101FE600170EB96F010EBA6FC4EC05F0050E0B6E35
:101FF6000F0E0C6EF10E0D6E0D2EFED70C2EFCD7AD
:102006000B2EFAD7010ED16FAFEC00F0EEEF14F005
:10201600200E8311006E84C901F0000E011200C06B
:1020260083F901C084F900C0B9F901C0BAF92EECF0
:1020360006F0050E0B6E0F0E0C6EF10E0D6E0D2ECC
:10204600FED70C2EFCD70B2EFAD7010ED16FAFECB4
:1020560000F0020EC76F010EC86F550EC96F010E54
:10206600CA6F4FEC02F0020EC76F120EC86F520E07
:10207600C96F010ECA6F4FEC02F0400EB96F010E28
:10208600BA6FC4EC05F0050E0B6E0F0E0C6EF10E5A
:102096000D6E0D2EFED70C2EFCD70B2EFAD7010E89
:1020A600D16FAFEC00F0EEEF14F0200E8319006E46
:1020B60084C901F0000E011A00C083F901C084F939
:1020C60000C0B9F901C0BAF92EEC06F0050E0B6E88
:1020D6000F0E0C6EF10E0D6E0D2EFED70C2EFCD7CC
:1020E6000B2EFAD7010ED16FAFEC00F0020EC76FC0
:1020F600010EC86FDF0EC96F030ECA6F4FEC02F0F8
:10210600020EC76F120EC86F150EC96F050ECA6F85
:102116004FEC02F0020EB96F050EBA6FC4EC05F073
:10212600050E0B6E0F0E0C6EF10E0D6E0D2EFED7FC
:102136000C2EFCD70B2EFAD7010ED16FAFEC00F0A8
:10214600EEEF14F0100E8311006E84C901F0000E3C
:10215600011200C083F901C084F900C0B9F901C0B9
:10216600BAF92EEC06F0050E0B6E0F0E0C6EF10E84
:102176000D6E0D2EFED70C2EFCD70B2EFAD7010EA8
:10218600D16FAFEC00F0020EC76F010EC86FF50EEF
:10219600C96F040ECA6F4FEC02F0020EC76F120E23
:1021A600C86F380EC96F050ECA6F4FEC02F0260EC7
:1021B600B96F050EBA6FC4EC05F0050E0B6E0F0E67
:1021C6000C6EF10E0D6E0D2EFED70C2EFCD70B2EBF
:1021D600FAD7010ED16FAFEC00F0FDD3100E8319C4
:1021E600006E84C901F0000E011A00C083F901C017
:1021F60084F900C0B9F901C0BAF92EEC06F0050E53
:102206000B6E0F0E0C6EF10E0D6E0D2EFED70C2EF4
:10221600FCD70B2EFAD7010ED16FAFEC00F0020EF1
:10222600C76F010EC86F190EC96F050ECA6F4FEC46
:1022360002F0020EC76F120EC86FF10EC96F040EC0
:10224600CA6F4FEC02F0B60EB96F040EBA6FC4EC4B
:1022560005F0050E0B6E0F0E0C6EF10E0D6E0D2EAB
:10226600FED70C2EFCD70B2EFAD7010ED16FAFEC92
:1022760000F0B1D3800E8311006E84C901F0000E08
:10228600011200C083F901C084F900C0B9F901C088
:10229600BAF92EEC06F0050E0B6E0F0E0C6EF10E53
:1022A6000D6E0D2EFED70C2EFCD70B2EFAD7010E77
:1022B600D16FAFEC00F0020EC76F010EC86FA60E0D
:1022C600C96F040ECA6F4FEC02F0020EC76F120EF2
:1022D600C86FA30EC96F040ECA6F4FEC02F0DD0E75
:1022E600B96F040EBA6FC4EC05F0050E0B6E0F0E37
:1022F6000C6EF10E0D6E0D2EFED70C2EFCD70B2E8E
:10230600FAD7010ED16FAFEC00F065D3800E8319BA
:10231600006E84C901F0000E011A00C083F901C0E5
:1023260084F900C0B9F901C0BAF92EEC06F0050E21
:102336000B6E0F0E0C6EF10E0D6E0D2EFED70C2EC3
:10234600FCD70B2EFAD7010ED16FAFEC00F0020EC0
:10235600C76F010EC86FCD0EC96F040ECA6F4FEC62
:1023660002F0020EC76F120EC86FC90EC96F040EB7
:10237600CA6F4FEC02F0B90EB96F050EBA6FC4EC16
:1023860005F0050E0B6E0F0E0C6EF10E0D6E0D2E7A
:10239600FED70C2EFCD70B2EFAD7010ED16FAFEC61
:1023A60000F019D3400E8311006E84C901F0000EAF
:1023B600011200C083F901C084F900C0B9F901C057
:1023C600BAF92EEC06F0050E0B6E0F0E0C6EF10E22
:1023D6000D6E0D2EFED70C2EFCD70B2EFAD7010E46
:1023E600D16FAFEC00F0020EC76F010EC86FA80EDA
:1023F600C96F050ECA6F4FEC02F0020EC76F120EC0
:10240600C86FA50EC96F050ECA6F4FEC02F0E30E3A
:10241600B96F050EBA6FC4EC05F0050E0B6E0F0E04
:102426000C6EF10E0D6E0D2EFED70C2EFCD70B2E5C
:10243600FAD7010ED16FAFEC00F0CDD2400E831962
:10244600006E84C901F0000E011A00C083F901C0B4
:1024560084F900C0B9F901C0BAF92EEC06F0050EF0
:102466000B6E0F0E0C6EF10E0D6E0D2EFED70C2E92
:10247600FCD70B2EFAD7010ED16FAFEC00F0020E8F
:10248600C76F010EC86FD20EC96F050ECA6F4FEC2B
:1024960002F0020EC76F120EC86FCE0EC96F050E80
:1024A600CA6F4FEC02F08F0EB96F050EBA6FC4EC0F
:1024B60005F0050E0B6E0F0E0C6EF10E0D6E0D2E49
:1024C600FED70C2EFCD70B2EFAD7010ED16FAFEC30
:1024D60000F081D2080E8311006E84C901F0000E4F
:1024E600011200C083F901C084F900C0B9F901C026
:1024F600BAF92EEC06F0050E0B6E0F0E0C6EF10EF1
:102506000D6E0D2EFED70C2EFCD70B2EFAD7010E14
:10251600D16FAFEC00F0020EC76F010EC86F530EFD
:10252600C96F050ECA6F4FEC02F0020EC76F120E8E
:10253600C86F500EC96F050ECA6F4FEC02F03B0E06
:10254600B96F050EBA6FC4EC05F0050E0B6E0F0ED3
:102556000C6EF10E0D6E0D2EFED70C2EFCD70B2E2B
:10256600FAD7010ED16FAFEC00F035D2080E831901
:10257600006E84C901F0000E011A00C083F901C083
:1025860084F900C0B9F901C0BAF92EEC06F0050EBF
:102596000B6E0F0E0C6EF10E0D6E0D2EFED70C2E61
:1025A600FCD70B2EFAD7010ED16FAFEC00F0020E5E
:1025B600C76F010EC86F7E0EC96F050ECA6F4FEC4E
:1025C60002F0020EC76F120EC86F7A0EC96F050EA3
:1025D600CA6F4FEC02F0640EB96F050EBA6FC4EC09
:1025E60005F0050E0B6E0F0E0C6EF10E0D6E0D2E18
:1025F600FED70C2EFCD70B2EFAD7010ED16FAFECFF
:1026060000F0E9D1040E8311006E84C901F0000EBA
:10261600011200C083F901C084F900C0B9F901C0F4
:10262600BAF92EEC06F0050E0B6E0F0E0C6EF10EBF
:102636000D6E0D2EFED70C2EFCD70B2EFAD7010EE3
:10264600D16FAFEC00F0020EC76F010EC86F450EDA
:10265600C96F040ECA6F4FEC02F0030EC76F010E6E
:10266600C86F3E0EC96F040ECA6F4FEC02F0020E21
:10267600C76F120EC86F3B0EC96F040ECA6F4FECC0
:1026860002F06E0EB96F040EBA6FC4EC05F0050EBB
:102696000B6E0F0E0C6EF10E0D6E0D2EFED70C2E60
:1026A600FCD70B2EFAD7010ED16FAFEC00F093D109
:1026B600040E8319006E84C901F0000E011A00C0D1
:1026C60083F901C084F900C0B9F901C0BAF92EEC4A
:1026D60006F0050E0B6E0F0E0C6EF10E0D6E0D2E26
:1026E600FED70C2EFCD70B2EFAD7010ED16FAFEC0E
:1026F60000F0020EC76F010EC86F5D0EC96F040EA3
:10270600CA6F4FEC02F0030EC76F010EC86F560E6C
:10271600C96F040ECA6F4FEC02F0020EC76F120E9D
:10272600C86F370EC96F040ECA6F4FEC02F0FC0E6D
:10273600B96F030EBA6FC4EC05F0050E0B6E0F0EE3
:102746000C6EF10E0D6E0D2EFED70C2EFCD70B2E39
:10275600FAD7010ED16FAFEC00F03DD1010E831117
:10276600006E84C901F0000E011200C083F901C099
:1027760084F900C0B9F901C0BAF92EEC06F0050ECD
:102786000B6E0F0E0C6EF10E0D6E0D2EFED70C2E6F
:10279600FCD70B2EFAD7010ED16FAFEC00F0020E6C
:1027A600C76F010EC86FEF0EC96F030ECA6F4FECED
:1027B60002F0020EC76F120EC86FEC0EC96F030E41
:1027C600CA6F4FEC02F0250EB96F040EBA6FC4EC57
:1027D60005F0050E0B6E0F0E0C6EF10E0D6E0D2E26
:1027E600FED70C2EFCD70B2EFAD7010ED16FAFEC0D
:1027F60000F0F1D0010E8319006E84C901F0000EBD
:10280600011A00C083F901C084F900C0B9F901C0FA
:10281600BAF92EEC06F0050E0B6E0F0E0C6EF10ECD
:102826000D6E0D2EFED70C2EFCD70B2EFAD7010EF1
:10283600D16FAFEC00F0020EC76F010EC86F180E15
:10284600C96F040ECA6F4FEC02F0020EC76F120E6C
:10285600C86F140EC96F040ECA6F4FEC02F08A0ED1
:10286600B96F040EBA6FC4EC05F0050E0B6E0F0EB1
:102876000C6EF10E0D6E0D2EFED70C2EFCD70B2E08
:10288600FAD7010ED16FAFEC00F0A5D0090198512F
:10289600300AD8B425EF0EF09851310AD8B435EF86
:1028A6000EF098516C0AD8B45CEF0EF098516D0A90
:1028B600D8B46EEF0EF09851680AD8B480EF0EF0D7
:1028C6009851320AD8B492EF0EF09851330AD8B420
:1028D6009BEF0EF098514C0AD8B4B5EF0EF0985114
:1028E6004D0AD8B4C7EF0EF09851480AD8B4D9EFBC
:1028F6000EF09851340AD8B4EBEF0EF09851350A21
:10290600D8B4F4EF0EF09851360AD8B4FDEF0EF0B5
:102916009851370AD8B406EF0FF09851380AD8B450
:102926000FEF0FF09851430AD8B418EF0FF09851F3
:10293600420AD8B426EF0FF09851620AD8B43DEF98
:102946000FF09851630AD8B454EF0FF09851610A0A
:10295600D8B471EF0FF09851410AD8B4BEEF0FF01A
:102966009851640AD8B40BEF10F09851440AD8B4C1
:1029760058EF10F09851650AD8B4A5EF10F09851A9
:10298600450AD8B42BD49851670AD8B473D4985151
:10299600470AD8B4BBD49851690AD8B403D598511C
:1029A600490AD8B44BD598516B0AD8B493D59851E7
:1029B6004B0AD8B4DBD598516E0AD8B423D69851B1
:1029C6004E0AD8B475D698516F0AD8B4C7D698515E
:0C29D6004F0AD8B40FD776EF0BF0FFD7F4
:10334C0010EE19F06A0E006E0A0E016EE20EF66EA9
:0E335C00290EF76E000EF86E8BEC04F01200D6
:1029E20047415244454E2042554C4253204F4E20BF
:0429F2000D0A2000AA
:0B29F6005456204F4646200D0A2000DA
:0B2A0100205456204F4E200D0A2000EC
:0D2A0C00424C494E4453204F4E0D0A20000D
:102A19002054454D5045524154555245203D2000C2
:102A290047415244454E2042554C4253204F464659
:052A3900200D0A200041
:102A3E004845415445522046414E204F4646200DB2
:032A4E000A20005B
:102A5100505245535320483B204849474820535042
:092A610045454420200D0A200027
:102A6A005052455353204D3B204D454449554D2026
:0A2A7A005350454544200D0A20008A
:102A84005052455353204C3B204C4F5720535045F4
:082A9400454420200D0A20003A
:102A9C0048494748205350454544204143544956E2
:062AAC0045200D0A200088
:102AB2004D454449554D20535045454420414354CA
:092AC20049564520200D0A2000B0
:102ACB004C4F57205350454544204143544956459C
:052ADB00200D0A20009F
:102AE0004B69746368656E204C69676874204F4653
:052AF000460D0A200064
:042AF5004F46460002
:102AF9004B69746368656E204C696768743A200095
:102B090044526F6F6D204C69676874204F4E0D0AEF
:022B190020009A
:032B1B004F4E001A
:0D2B1E00526F6F6D204C696768743A20009B
:102B2B004B69746368656E204C69676874204F4EFF
:042B3B000D0A20005F
:102B3F00594F555220434F46464545204953205241
:062B4F004541445920003D
:102B5500434F46464545204D414348494E45204F44
:052B65004E0D0A2000E6
:0E2B6A00424C494E4453204F46460D0A20006F
:032B78004F4E00BD
:102B7B004B69746368656E204C696768743A200012
:102B8B0053595354454D2053414645202020202076
:022B9B00200018
:102B9D00204D4F54494F4E204445544543544544D0
:102BAD0020414C41524D20414354495645200D0A78
:022BBD002000F6
:102BBF004D4F54494F4E20444554454354454420AE
:062BCF0020202020200060
:022BD5000000FE
:102BD70053595354454D205341464520202020202A
:022BE7002000CC
:102BE9005052455353206F3B204F524F4F4D204C6D
:0D2BF9004947485453204F4E200D0A20003C
:102C06005052455353204E3B204348494C4452456D
:102C16004E2753204C4947485453204F4646200DD3
:032C26000A200081
:102C29005052455353206E3B204348494C4452452A
:102C39004E2753204C4947485453204F4E200D0AE4
:022C4900200069
:102C4B002047415320444554454354454420414C6F
:0F2C5B0041524D20414354495645200D0A200057
:102C6A00474153204445544543544544202020209D
:032C7A0020200017
:102C7D005052455353204F3B204F524F4F4D204CF8
:0E2C8D004947485453204F4646200D0A200068
:102C9B004D454449554D20535045454420414354DF
:092CAB0049564520200D0A2000C5
:102CB4004C4F5720535045454420414354495645B1
:052CC400200D0A2000B4
:102CC900505245535320683B2048494748205350A8
:092CD90045454420200D0A2000AD
:102CE2002A2A43484F4F53452048454154455220D4
:102CF20046414E2053504545442A2A200D0A2000C1
:102D0200434F4F4C45522046414E204F4646200DE0
:032D12000A200094
:102D15004849474820535045454420414354495666
:062D250045200D0A20000C
:102D2B005052455353206D3B204D454449554D2042
:0A2D3B005350454544200D0A2000C6
:012D4500008D
:102D460054454D50203D20000000000000000000CA
:062D560000000000000077
:102D5C005052455353206C3B204C4F5720535045F9
:082D6C00454420200D0A20005F
:102D74002A2A43484F4F534520434F4F4C45522036
:102D840046414E2053504545442A2A200D0A20002E
:102D940020414C4C2053595354454D204F46462016
:042DA4000D0A2000F4
:0D2DA800526F6F6D204C696768743A20000F
:032DB5004F4E007E
:0D2DB800526F6F6D204C696768743A2000FF
:102DC5004368696C6472656E2773204C6967687423
:082DD500204F46460D0A2000C4
:042DDD004F46460017
:0D2DE100526F6F6D204C696768743A2000D6
:102DEE004F726F6F6D204C69676874204F4E0D0ADD
:022DFE002000B3
:042E00004F464600F3
:032E04004F4E002E
:072E07004C696768742000AC
:102E0E004368696C6472656E277320526F6F6D2014
:012E1E0000B3
:072E1F004C69676874200094
:102E26004368696C6472656E277320526F6F6D20FC
:012E3600009B
:102E37004368696C6472656E2773204C69676874B0
:072E4700204F4E0D0A200090
:042E4E00494E4600A3
:012E52000F70
:102E53004F726F6F6D204C69676874204F46460D43
:032E63000A200042
:022E660030003A
:042E68004E614E0069
:032E6C004F4E00C6
:102E6F00426564726F6F6D204C696768743A200019
:102E7F0045526F6F6D204C69676874204F46460D41
:032E8F000A200016
:042E92004F46460061
:102E9600426564726F6F6D204C696768743A2000F2
:102EA600426564726F6F6D204C69676874204F4E7F
:042EB6000D0A2000E1
:042EBA004F46460039
:0D2EBE00526F6F6D204C696768743A2000F8
:102ECB0044526F6F6D204C69676874204F46460DF6
:032EDB000A2000CA
:042EDE004F46460015
:0D2EE200526F6F6D204C696768743A2000D4
:102EEF0045526F6F6D204C69676874204F4E0D0A05
:022EFF002000B1
:032F01004F4E0030
:102F0400436F727269646F72204C69676874204FF2
:052F14004E0D0A200033
:032F19004F4E0018
:102F1C00436F727269646F72204C696768743A20EF
:012F2C0000A4
:102F2D00436F727269646F72204C69676874204FC9
:062F3D0046460D0A2000CB
:042F43004F464600AF
:102F4700436F727269646F72204C696768743A20C4
:012F57000079
:102F580042617468726F6F6D204C69676874204FA6
:062F680046460D0A2000A0
:032F6E004F4E00C3
:102F710042617468726F6F6D204C696768743A20A2
:012F8100004F
:102F8200426564726F6F6D204C69676874204F46AA
:052F9200460D0A2000BD
:042F97004F4646005B
:102F9B0042617468726F6F6D204C696768743A2078
:012FAB000025
:102FAC0042617468726F6F6D204C69676874204F52
:052FBC004E0D0A20008B
:0F2FC10053595354454D2052454144592E2E002B
:0C2FD000504C45415345205741495400E6
:0B2FDC00313830343033303634200000
:0D2FE7004F7268616E2059494C44495A00F0
:102FF4002057454C434F4D4520484F4D45200D0A21
:023004002000AA
:10300600505245535320323B20434F4F4C4552209C
:1030160046414E204D414E55454C204D4F4445208E
:083026004F4646200D0A200070
:10302E00505245535320333B20484541544552207E
:10303E0046414E204D414E55454C204D4F44452066
:08304E004F4E20200D0A200066
:10305600505245535320313B20434F4F4C4552204D
:1030660046414E204D414E55454C204D4F4445203E
:073076004F4E200D0A20005F
:10307D0053595354454D2052454144592E2E2E0D32
:03308D000A200016
:10309000505245535320303B20414C4C2053595300
:0D30A00054454D204F464620200D0A2000CB
:0530AD0031393235004D
:0F30B200454E5445522050415353574F524400FE
:0830C10057454C434F4D4500FB
:0D30C90053595354454D20424C4F434B008A
:1030D60057414954203130205345434F4E44200038
:0B30E600534D41525420484F4D45000F
:0F30F10057524F4E472050415353574F524400B0
:10310000505245535320413B204B49544348454E70
:10311000204C4947485453204F4646200D0A200072
:10312000505245535320673B20424544524F4F4D28
:0F313000204C4947485453204F4E200D0A200091
:10313F00505245535320613B204B49544348454E11
:0F314F00204C4947485453204F4E200D0A200072
:10315E00505245535320623B20424C494E4453201B
:08316E004F4646200D0A200027
:10317600505245535320433B20464F522054454D11
:0D3186005045524154555245200D0A20007D
:103193005052455353206B3B20434F525249444FA7
:1031A30052204C4947485453204F4E200D0A2000CB
:1031B3005052455353204B3B20434F525249444FA7
:1031C30052204C4947485453204F4646200D0A206D
:0131D30000FB
:1031D400505245535320493B2042415448524F4F8B
:1031E4004D204C4947485453204F4646200D0A2051
:0131F40000DA
:1031F500505245535320473B20424544524F4F4D73
:10320500204C4947485453204F4646200D0A20007C
:10321500505245535320693B2042415448524F4F29
:103225004D204C4947485453204F4E200D0A20004D
:10323500505245535320373B2047415244454E2079
:0D32450042554C4253204F4E200D0A2000F0
:10325200505245535320383B2047415244454E205B
:0E32620042554C4253204F4646200D0A200094
:10327000505245535320363B205456204F4646204B
:043280000D0A200013
:10328400505245535320343B204845415445522025
:1032940046414E204D414E55454C204D4F4445200E
:0832A4004F4646200D0A2000F0
:1032AC00505245535320353B205456204F4E200D41
:0332BC000A2000E5
:1032BF00505245535320653B2045524F4F4D204CA4
:0D32CF004947485453204F4E200D0A20005F
:1032DC00505245535320453B2045524F4F4D204CA7
:0E32EC004947485453204F4646200D0A200003
:1032FA00505245535320443B2044524F4F4D204C8B
:0E330A004947485453204F4646200D0A2000E4
:10331800505245535320423B20424C494E4453207F
:073328004F4E200D0A2000AA
:10332F00505245535320643B2044524F4F4D204C35
:0D333F004947485453204F4E200D0A2000EE
:020000040030CA
:0D000100281F3CFFBF81FF0FC00FE00F4024
:00000001FF
