:04000000FBEF0BF017
:1000080000C015F09EA21AD00001EE4BEF2B000E97
:10001800EF1902E1640EEE1910E1EE6BEF6B5F5021
:10002800000802E25F0609D05F50000A06E14D5061
:10003800000803E24D063B0E5F6E9E9215C000F06D
:020048001100A5
:10004A000F0E0C6E470E0D6E0D2EFED70C2EFCD722
:06005A000000000012008E
:0600600000000000120088
:0A006600210E0D6E0D2EFED71200C4
:100070000201B9BF02D0839601D08386B9BD02D0F8
:10008000839401D08384B9BB02D0839201D0838250
:10009000B9B902D0839001D08380A4B102D0838803
:1000A00001D08398838ADCDF839AB9B702D0839624
:1000B00001D08386B9B502D0839401D08384B9B3CB
:1000C00002D0839201D08382B9B102D0839001D053
:1000D0008380A4B102D0838801D08398838AC0DF53
:0E00E000839AA4A102D0B1DF01D0BDDF1200CF
:1000EE000B840BAE82EF00F0010E036E026A016A02
:0A00FE00006A0A360232FF0E1200FB
:0E010800026A016A006A086A036A000E1200A9
:100116000B820BAE95EF00F0036802680168006879
:080126000A360232FF0E12003E
:08012E000AAE029E000E120051
:0E0136000201A491B8C2B9F298DFA4811200B0
:100144000CB0E4EF00F00CA28AEF01F00E6A000E8E
:100154000264FBEF00F0F00E0214D8A4C6EF00F026
:10016400023A01380F0B02260138F00B016E0038F9
:100174000F0B01260038F00B006E08380F0B002619
:100184000838F00B086E0E84D89002BEDFEF00F042
:1001940008360036013602360E2A02BEDFEF00F0C2
:1001A40008360036013602360E2A02BEDFEF00F0B2
:1001B40008360036013602360E2A0E50036480EFEC
:1001C40001F0035E0BBC08AE85EF01F0D880800E11
:1001D40008640030000E002201220222D8A085EF1C
:1001E40001F0023201320032034A8AEF01F085EF56
:1001F40001F001C002F000C001F008C000F0086A7C
:10020400000E0E86026432EF01F0F00E0214D8A440
:100214001AEF01F0023A01380F0B02260138F00BF5
:10022400016E00380F0B01260038F00B006E0E84AF
:10023400D89002BEDFEF00F00036013602360E2AF7
:1002440002BEDFEF00F00036013602360E2A02BE8F
:10025400DFEF00F00036013602360E2ADFEF00F041
:1002640001C002F000C001F0006A000E0E960E8874
:1002740002645FEF01F0F00E0214D8A44AEF01F01B
:10028400023A01380F0B02260138F00B016E0E847E
:10029400D89002BEDFEF00F0013602360E2A02BE0D
:1002A400DFEF00F0013602360E2A02BEDFEF00F067
:1002B400013602360E2ADFEF00F001C002F0016AB7
:1002C400000E0E8602648FEF01F0F00E0214D8A423
:1002D4006EEF01F0023A0E84D89002BEDFEF00F018
:1002E40002360E2A02BEDFEF00F002360E2A02BEEC
:1002F400DFEF00F002360E2ADFEF00F0010E0C6E85
:10030400F4DE92EF01F0020E0C6E0FDF92EF01F0BB
:10031400040E0C6EFEDE92EF01F0080E0C6EF2DE9F
:020324001200C5
:10032600086A080E0C6E003408360450085ED8B011
:0E03360002D00826D89000360C2EF5D7120003
:080344003F0E8114006E12004F
:10034C00010E0201B96F8EDE420E0D6E0D2EFED720
:04035C00000012008B
:1003600010D0800E0201B26F1AD0C00EB26F17D03B
:10037000940EB26F14D0D40EB26F11D0800EB26F43
:100380000ED00201B251010AECE0B251020AEDE0D6
:10039000B251030AEDE0B251040AEDE0EFD7B30524
:1003A000006EB251002600C0B2F200C0B9F260DEA9
:1003B000A491B66BB651B425E96E000EB521EA6E74
:1003C000EE520BE0B651B425E96E000EB521EA6E8F
:0E03D000EECFB8F2B0DEB62BEDD7A48112004E
:1003DE00025006180E6E086A096A0B6A035007640B
:1003EE00E2EF02F006500A6E068E028E03500B6E7E
:1003FE000750036E000E0B6432EF02F00B50075ED7
:10040E00D8B4D3EF02F0070E0764A1EF02F0075E37
:10041E0000C008F001C000F002C001F0026A074EF1
:10042E00D3EF02F0076476EF02F0075E00C008F02B
:10043E0001C000F0016A074ED3EF02F0076454EFDB
:10044E0002F0075E00C008F0006A074ED3EF02F01C
:10045E0007643BEF02F00AC002F005C001F004C0D1
:10046E0000F0086AFCEF03F0030E076446EF02F09B
:10047E00075E08380F0B086E074ED3EF02F0D890C8
:10048E000832074ED3EF02F0D8900832074ED3EF62
:10049E0002F0D8900832D3EF02F0030E076465EF36
:1004AE0002F0075E08380F0B086E0038F00B0826B6
:1004BE0000380F0B006E074ED3EF02F0D8900032CB
:1004CE000832074ED3EF02F0D89000320832074EB2
:1004DE00D3EF02F0D89000320832D3EF02F0030EC1
:1004EE0007648DEF02F0075E08380F0B086E0038B8
:1004FE00F00B082600380F0B006E0138F00B0026AB
:10050E0001380F0B016E074ED3EF02F0D890013277
:10051E0000320832074ED3EF02F0D890013200328B
:10052E000832074ED3EF02F0D89001320032083273
:10053E00D3EF02F0030E0764BEEF02F0075E083839
:10054E000F0B086E0038F00B082600380F0B006EEC
:10055E000138F00B002601380F0B016E0238F00B3C
:10056E00012602380F0B026E074ED3EF02F0D89021
:10057E000232013200320832074ED3EF02F0D89029
:10058E000232013200320832074ED3EF02F0D89019
:10059E000232013200320832096A000E0EAEC7EF87
:1005AE0003F0081E001E011E021E082A0022012250
:1005BE000222C7EF03F00750D8A4E8EF02F0FCEFD9
:1005CE0003F0096A02C00AF0028E068E0750035C21
:1005DE00076ED8B4BAEF03F0070E076488EF03F086
:1005EE00075E0450096E0550046E0650056E066ACD
:1005FE00074EBAEF03F0070E07645DEF03F0075ED8
:10060E000450096E0550046E056A074EBAEF03F0EA
:10061E00070E07643BEF03F0075E0450096E046A91
:10062E00074EBAEF03F0070E076422EF03F00AC07D
:10063E0002F0FCEF03F0030E07642DEF03F0075EEC
:10064E0009380F0B096E074EBAEF03F0D890093236
:10065E00074EBAEF03F0D8900932074EBAEF03F007
:10066E00D8900932BAEF03F0030E07644CEF03F093
:10067E00075E09380F0B096E0438F00B0926043893
:10068E000F0B046E074EBAEF03F0D8900432093206
:10069E00074EBAEF03F0D89004320932074EBAEF84
:1006AE0003F0D89004320932BAEF03F0030E076458
:1006BE0074EF03F0075E09380F0B096E0438F00B68
:1006CE00092604380F0B046E0538F00B0426053886
:1006DE000F0B056E074EBAEF03F0D89005320432B9
:1006EE000932074EBAEF03F0D890053204320932C0
:1006FE00074EBAEF03F0D890053204320932BAEF42
:10070E0003F0030E0764A5EF03F0075E09380F0B25
:10071E00096E0438F00B092604380F0B046E0538E9
:10072E00F00B042605380F0B056E0638F00B052668
:10073E0006380F0B066E074EBAEF03F0D89006324E
:10074E00053204320932074EBAEF03F0D890063262
:10075E00053204320932074EBAEF03F0D890063252
:10076E00053204320932086A000E0EAEC7EF03F0EE
:10077E00091E041E051E061E092A04220522062233
:10078E00095008260450002205500122065002226C
:10079E000EBEDEEF03F0D8A0EDEF03F00232013211
:1007AE0000320832033EEDEF03F0F7EF03F0D8B05E
:1007BE00F2EF03F0000E081E001E011E021E082A94
:1007CE000022012202220A7EF2EF03F0010E0C6ECD
:1007DE00B2DCFEEF03F0020E0C6EADDCFEEF03F0AA
:1007EE00040E0C6E91DCFEEF03F0000E0C6E120088
:1007FE000C6A0E6A0250D8A418EF04F001C002F081
:10080E0000C001F0006A0E860250D8A418EF04F062
:10081E0001C002F0016A0E960E880250D8B42AEF7B
:10082E0004F00E50035ED8A4D8A02FEF04F0D89099
:10083E0002BE34EF04F0003601360236032E1FEFEF
:10084E0004F02FEF04F0010E0C6E57DC37EF04F0BE
:10085E00020E0C6E45DC37EF04F0040E0C6E60DCFD
:02086E00120076
:100870000201B56B030EB55D0AE2B551B325E16E19
:10088000000EB421E26E300EE66EB52BF3D7B551F3
:10089000B325E16E000EB421E26EE66AB507B251EF
:1008A000000A1EE0B551B325B66F000EB421B76F34
:1008B0000A0E046EB2C200F036DD08C000F0300E41
:1008C0000026B6C2E1FFB7C2E2FF00C0E6FFB507EF
:1008D0000A0E046EB2C200F026DD00C0B2F2DFD70D
:0208E000120004
:1008E20000C008F00150006E016A026A036A0B6AD6
:1008F2000C6A016A026A036A960E036E0A6A00AE05
:1009020089EF04F0081E001E082AD8B4002A0A8EB5
:1009120000C001F008C000F0086A026A6FDF12002E
:10092200AFC2B2F2A5C2B3F2000E0201B46F9FDFF2
:06093200A5C200F0120056
:1009380010D0800E0201AF6F1AD0C00EAF6F17D063
:10094800940EAF6F14D0D40EAF6F11D0800EAF6F6E
:100958000ED00201AF51010AECE0AF51020AEDE0FE
:10096800AF51030AEDE0AF51040AEDE0EFD7B0054F
:10097800006EAF51002600C0AFF2A48100C0B9F2EA
:1009880038EC00F0A491B1C2B9F238EC00F0A481BF
:0209980012004B
:10099A0081503F0A05E1010E006E000E016E00D083
:0209AA00120039
:1009AC00959A95989590959295949596839A839807
:1009BC00839683948392839025EC00F025EC00F0D1
:1009CC0025EC00F083828380838A30EC00F0839ADC
:1009DC0025EC00F0838A30EC00F0839A25EC00F0D3
:1009EC00838A30EC00F0839A25EC00F08390838AA4
:1009FC0030EC00F0839A25EC00F0838A30EC00F0A8
:100A0C00839A83928386838A30EC00F0839A25EC58
:100A1C0000F083968380838A30EC00F0839A839075
:100A2C00838A30EC00F0839A25EC00F0838A30EC5A
:100A3C0000F0839A8380838A30EC00F0839A25EC53
:100A4C0000F08390838A30EC00F0839A8386838451
:100A5C0083828380838A30EC00F0839A25EC00F04B
:060A6C000201A48112004A
:0E0A7200BA80BA82FA0EBB6E9D82BA94120050
:100A80000A6A0350D8A40A800750D8A40A820A50E0
:100A9000D8B4A3EF05F0030AD8B45CEF05F00AB0B0
:100AA00057EF05F006AEA1EF05F09FEF05F002AE9F
:100AB0009FEF05F0A1EF05F00250800B0A6E029E39
:100AC0000650800B069E0A18D8B46DEF05F00A5048
:100AD000D8B49FEF05F0A1EF05F00750035CD8B440
:100AE00077EF05F0D8A093EF05F099EF05F00650E9
:100AF000025CD8B481EF05F0D8A093EF05F099EF30
:100B000005F00550015CD8B48BEF05F0D8A093EF49
:100B100005F099EF05F00450005CD8B4A3EF05F0A0
:100B2000D8B099EF05F00A52D8B4A1EF05F09FEFC5
:100B300005F00A52D8B49FEF05F0A1EF05F0D88078
:0E0B40001200D8901200D880D8841200120043
:060B4E003F0E931212009D
:100B54000B6A0A6A096A00500402F4CF09F0F3CF61
:100B640008F001500502F4CF0BF0F3CF0AF0005067
:100B74000502F3500926F4500A22E86A0B220150B8
:100B84000402F3500926F4500A22E86A0B2208C032
:100B940000F009C001F00AC002F00BC003F012001B
:060BA400067E1BDC1200BE
:100BAA00086A096A000E076203645AEF06F00250E7
:100BBA0006180A6E075003267E0ED8A0EBEF05F042
:100BCA00035ED8B05FEF06F0EFEF05F0035ED8A042
:100BDA0064EF06F0028E068E02C00EF001C00BF022
:100BEA0000C00DF000500402F4CF0CF001500502D1
:100BFA00F4CF00F0F3CF08F00402F3500C26F450BF
:100C0A000822000E00220D500502F3500C26F45063
:100C1A000822000E002202500402F3500826F45063
:100C2A00002202500502016A000E0122F35000263A
:100C3A00F45001220D500602F3500826F450002207
:100C4A00026A000E012202220B500602F35000260D
:100C5A00F4500122000E02220E500602F350012621
:100C6A00F450022202BE42EF06F008360036013680
:100C7A0002360306D8B464EF06F055EF06F0D880C2
:100C8A00800E08640030000E002201220222D8A041
:100C9A0055EF06F0023201320032034A5FEF06F0E6
:100CAA000AAE029E000E67EF06F0010E84EC00F019
:100CBA0067EF06F0020E8BEC00F067EF06F0040E09
:060CCA0077EC00F01200BF
:100CD00081B01AD082828294BA94A6EC01F0010EFF
:100CE000B26F010EB36F390EB46F010EB56FB0EC79
:100CF00001F0030EB26F010EB36F460EB46F010E1A
:0A0D0000B56FB0EC01F0FFD7120050
:100D0A0001019C6B0201A86BA2EC01F000C0A9F2E0
:020D1A001200C5
:100D1C0081503F0A05E0010E006E000E016E00D0FE
:020D2C001200B3
:100D2E000900F5CFE6FF0006FBE10106F9E112002E
:100D3E000F01386B396B3A6B3B6B3C6B30DE00DF6F
:0C0D4E0091DE94949492F28CF28E1200CC
:100D5A000201AA51000A03E1A2EC01F033D0D9DF63
:100D6A000050011005E001019C5302E0C9DF28D0C0
:100D7A000201A2EC01F0A951001809E1140EA85DC4
:100D8A0006E201019C5303E10201A82B19D00201DA
:100D9A00A851140A05E1A82B800EA911006E12D0E1
:100DAA00F7DD005001100CE001019C5309E1010E2E
:100DBA009C6F140E0201A85D03E2A9C200F002D0E2
:060DCA003F0E006E120056
:100DD0000201A751110A04E101018E6BA6EC01F09A
:100DE000AA51370A08E101018E2B8E51050AD8B4A9
:100DF0008E6BA6EC01F0010EB26F010EB36F8F0E79
:100E0000B46F010EB56FB0EC01F0020EB26F010EBF
:100E1000B36F710EB46F020EB56FB0EC01F001014B
:100E20008E51020849E3020E0201B26F040EB36F45
:100E3000070E006E000E016E8EC104F0000E056EEE
:100E400089DE740E0024B46F020E0120B56FB0EC81
:100E500001F0030EB26F040EB36F01018E51010F4A
:100E6000006E016A000E0122070E046E000E056E70
:100E700071DE740E00240201B46F020E0120B56F02
:100E8000B0EC01F0040EB26F040EB36F020E01015C
:100E90008E25006E016A000E0122070E046E000E00
:100EA000056E58DE740E00240201B46F020E01209C
:100EB000B56FB0EC01F06CD001018E51030A3AE13C
:100EC000020E0201B26F040EB36F070E006E000E29
:100ED000016E8EC104F0000E056E3CDE740E00241F
:100EE000B46F020E0120B56FB0EC01F0030EB26FCB
:100EF000040EB36F01018E51010F006E016A000EE6
:100F00000122070E046E000E056E24DE740E00240E
:100F10000201B46F020E0120B56FB0EC01F0040EB7
:100F2000B26F040EB36F740EB46F020EB56FB0ECF7
:100F300001F02ED001018E51040A2AE1020E0201B5
:100F4000B26F040EB36F070E006E000E016E8EC1FD
:100F500004F0000E056EFEDD740E0024B46F020E68
:100F60000120B56FB0EC01F0030EB26F040EB36F49
:100F7000740EB46F020EB56FB0EC01F0040EB26FD8
:100F8000040EB36F7B0EB46F020EB56FB0EC01F0C0
:020F900012004D
:100F92009EDE020E0201B26F090EB36F500EB46FE5
:100FA200000EB56FB0EC01F0020EB26F0D0EB36F12
:100FB200520EB46F000EB56FB0EC01F0A751120AD9
:100FC200D8A4BAD0A6EC01F0010EB26F010EB36F35
:100FD200540EB46F000EB56FB0EC01F0010EAF6F9E
:100FE200070EB06F040E026E97C200F0000E016E83
:100FF200025005E0003600900136FF0FFAD79D0E31
:101002000026010E012200C0B1F295DC020EB26F81
:10101200010EB36F460EB46F000EB56FB0EC01F067
:101022004DC0AFF2000EB06F7BDC00C0B4F2000E18
:10103200B56F020EB26F090EB36FB0EC01F0020E83
:10104200B26F090EB36F4E0EB46F000EB56FB0ECF7
:1010520001F0020EAF6F0C0EB06F3A0EB16F6BDC87
:101062005FC0AFF2000EB06F5BDC00C0B4F2000EE6
:10107200B56F020EB26F0D0EB36FB0EC01F0020E3F
:10108200B26F0D0EB36F7A0EB46F000EB56FB0EC87
:1010920001F0030EB26F080EB36F7C0EB46F000E38
:1010A200B56FB0EC01F0060E0B6E130E0C6EAD0EAA
:1010B2000D6E0D2EFED70C2EFCD70B2EFAD700008C
:1010C2000000A6EC01F0010EB26F010EB36F850EA7
:1010D200B46F000EB56FB0EC01F0020EB26F010EEC
:1010E200B36F600EB46F000EB56FB0EC01F0040E7A
:1010F200B26F010EB36F660EB46F000EB56FB0EC37
:1011020001F03C0E4D02F3CF00F0F4CF01F05F503E
:101112000026000E012200C09FF201C0A0F200C012
:10112200A1F201C0A2F2996B9A6B9B6B9C6B00C0FF
:101132009DF201C09EF2BA84AA511F0A04E1BA9438
:101142008294050E986F3C0E4D02F3CF9FF2F4CFBE
:10115200A0F25F509F27000EA0239751070847E394
:101162009951A15D016E9A51A259026E800EA01989
:10117200006E800E0218005C02E101509F5D0BE3DD
:10118200010EB26F0C0EB36F160EB46F000EB56F78
:10119200B0EC01F02BD09951A15D006E9A51A25989
:1011A200016E9B51005C026E9C510158036E800ED1
:1011B200A019006E800E0318005C02E102509F5DD0
:1011C2000BE3010EB26F0C0EB36F1C0EB46F000E68
:1011D200B56FB0EC01F00AD0010EB26F0C0EB36F16
:1011E200320EB46F000EB56FB0EC01F07FD09751A4
:1011F200080A64E1A1C200F0A2C201F071EC04F09D
:1012020000C0ABF201C0ACF202C0ADF203C0AEF25C
:10121200CD0E006ECC0E016E4C0E026E7D0E036E74
:10122200ABC204F0ACC205F0ADC206F0AEC207F02C
:10123200BBDC00C004F001C005F002C006F003C030
:1012420007F0ABC200F0ACC201F0ADC202F0AEC218
:1012520003F0A7DC00C0ABF201C0ACF202C0ADF2F9
:1012620003C0AEF29FC200F0A0C201F071EC04F024
:10127200ABC204F0ACC205F0ADC206F0AEC207F0DC
:1012820040EC05F0000ED8B0010E006E00520BE0EB
:10129200010EB26F0C0EB36F380EB46F000EB56F45
:1012A200B0EC01F00AD0010EB26F0C0EB36F3F0E1C
:1012B200B46F000EB56FB0EC01F018D09751090A67
:1012C2000BE1010EB26F0C0EB36F230EB46F000E62
:1012D200B56FB0EC01F00AD0010EB26F0C0EB36F15
:1012E2002A0EB46F000EB56FB0EC01F04DC0AFF234
:1012F200000EB06F91EC04F000C0B4F2000EB56FB6
:10130200020EB26F090EB36FB0EC01F0020EB26FB3
:10131200090EB36F300EB46F000EB56FB0EC01F072
:10132200020EAF6F0C0EB06F3A0EB16F9CEC04F070
:101332005FC0AFF2000EB06F91EC04F000C0B4F2E7
:10134200000EB56F020EB26F0D0EB36FB0EC01F06E
:10135200020EB26F0D0EB36F540EB46F010EB56F65
:10136200B0EC01F05F50000A30E14D50000A2DE16F
:10137200BA9482948282A6EC01F0010EB26F010E41
:10138200B36F560EB46F010EB56FB0EC01F0030EE1
:10139200B26F010EB36F250EB46F010EB56FB0ECD4
:1013A20001F0150E0B6E4B0E0C6EBE0E0D6E0D2E59
:1013B200FED70C2EFCD70B2EFAD700008292010E1C
:0C13C200986F100EA76FA6EC01F012004F
:1013CE000201A751100A03E1A6EC01F0976BAA5196
:1013DE00370A07E1972B97510C0AD8B4976BA6ECF6
:1013EE0001F0010EB26F010EB36F600EB46F020EFC
:1013FE00B56FB0EC01F0020EB26F010EB36F5D0E61
:10140E00B46F020EB56FB0EC01F09751090858E3B6
:10141E00020EB26F040EB36F040E026E97C200F08E
:10142E00000E016E025005E0003600900136FF0FEF
:10143E00FAD79D0E0024B46F010E0120B56FB0ECEB
:10144E0001F0030EB26F040EB36F9751010F036ECE
:10145E00046A000E0422040E026E03C000F004C0E3
:10146E0001F0025005E0003600900136FF0FFAD76A
:10147E009D0E0024B46F010E0120B56FB0EC01F08B
:10148E00040EB26F040EB36F020E9725036E046A3C
:10149E00000E0422040E026E03C000F004C001F020
:1014AE00025005E0003600900136FF0FFAD79D0E70
:1014BE000024B46F010E0120B56FB0EC01F076D0B0
:1014CE0097510A0A43E1020EB26F040EB36F040E77
:1014DE00026E97C200F0000E016E025005E000365B
:1014EE0000900136FF0FFAD79D0E0024B46F010E47
:1014FE000120B56FB0EC01F0030EB26F040EB36FA6
:10150E009751010F036E046A000E0422040E026E40
:10151E0003C000F004C001F0025005E00036009058
:10152E000136FF0FFAD79D0E0024B46F010E012075
:10153E00B56FB0EC01F0040EB26F040EB36F9D0EDA
:10154E00B46F010EB56FB0EC01F030D097510B0AAD
:10155E002DE1020EB26F040EB36F040E026E97C22F
:10156E0000F0000E016E025005E0003600900136CC
:10157E00FF0FFAD79D0E0024B46F010E0120B56F38
:10158E00B0EC01F0030EB26F040EB36F9D0EB46F8C
:10159E00010EB56FB0EC01F0040EB26F040EB36F16
:0E15AE00AD0EB46F010EB56FB0EC01F012007F
:1015BC00010E0201A36F140EA35D0CE2010EB26FBB
:1015CC00A3C2B3F2F00EB46F000EB56FB0EC01F025
:1015DC00A32BF1D7020EB26F010EB36FF20EB46FE4
:1015EC00000EB56FB0EC01F0030EB26F010EB36FCD
:1015FC00030EB46F010EB56FB0EC01F0010EA36FCA
:10160C00140EA35D0CE2040EB26FA3C2B3F2EC0E87
:10161C00B46F000EB56FB0EC01F0A32BF1D7120034
:10162C00BBD00CD0210E5F6E4D6A18D0290E5F6EA8
:10163C004D6A14D02D0E5F6E4D6A10D001018E5183
:10164C00010AF0E08E51000AF1E08E51020AEEE040
:10165C008E51030AEFE08E51040AECE0C5D00BD09A
:10166C002B0E5F6E4D6A320E5F6E4D6A14D0390EC2
:10167C005F6E4D6A10D001018E51010AF1E08E515E
:10168C00000AF1E08E51020AEEE08E51030AEFE0FF
:10169C008E51040AECE0A8D008D01A0E5F6E4D6A89
:1016AC0014D01F0E5F6E4D6A10D001018E51010ACD
:1016BC00F4E08E51000AF1E08E51020AEEE08E51F8
:1016CC00030AEFE08E51040AECE08ED0100E5F6E30
:1016DC00010E4D6E89D0240E5F6E010E4D6E1C0EE8
:1016EC005F6E4D6A81D01D0E5F6E7ED00BD02E0EBC
:1016FC005F6E4D6A350E5F6E4D6A14D03C0E5F6E98
:10170C004D6A10D001018E51010AF1E08E51000A90
:10171C00F1E08E51020AEEE08E51030AEFE08E5199
:10172C00040AECE061D007D0120E5F6E4D6A140E05
:10173C005F6E4D6A10D001018E51010AF5E08E5199
:10174C00000AF5E08E51020AF2E08E51030AEFE036
:10175C008E51040AECE048D0060E5F6E45D00BD0DB
:10176C00100E5F6E4D6A150E5F6E4D6A14D01A0E18
:10177C005F6E4D6A10D001018E51010AF1E08E515D
:10178C00000AF1E08E51020AEEE08E51030AEFE0FE
:10179C008E51040AECE028D002019751000AD8B40B
:1017AC0040D79751010AD8B45AD79751020AD8B4E6
:1017BC0073D79751030A8AE09751040A8CE097512A
:1017CC00050A8DE09751060A8EE09751070A8EE0C4
:1017DC009751080AA8E09751090ABEE097510A0AE6
:0A17EC00BEE097510B0ABBE01200AB
:1017F60004EC0EF09FEC06F03F0EA66F010E986FFC
:10180600100EA76F010EB96F38EC00F00C0EB96F11
:1018160038EC00F0010EB26F030EB36F150EB46F05
:10182600010EB56FB0EC01F0020EB26F030EB36F8E
:10183600BC0EB46F000EB56FB0EC01F0030EB26FC4
:10184600030EB36FCD0EB46F000EB56FB0EC01F0A2
:101856000201010EAA6FADEC06F000502F0A07E058
:10186600C70E0D6E0D2EFED700000000F1D7A6ECB8
:1018760001F0A1DE010EAA6FADEC06F000C0A6F2E3
:10188600060E0D6E0D2EFED700000201A651B70AF8
:1018960008E19851010A05E1020E986F110EA76F33
:1018A6003ED0A651B70A31E19851020A2EE1BBDEBD
:1018B600A6EC01F0010EB26F040EB36FDE0EB46F2C
:1018C600000EB56FB0EC01F0020EB26F040EB36FEE
:1018D600910EB46F000EB56FB0EC01F0030EB26F4F
:1018E600040EB36F9F0EB46F000EB56FB0EC01F02F
:1018F600040EB26F040EB36FAD0EB46F000EB56F6B
:10190600B0EC01F0030E986F0AD0A6512F0A07E13A
:101916009851050A04E1BA848284040E986F20D097
:10192600A6C2AAF251DD28D0A6C2AAF2E8EC06F0B9
:1019360023D00201A6512F0A05E1040E986F120E5C
:10194600A76F98D7A6511F0A05E1010E986F100ED2
:10195600A76F90D711D0A6C2AAF2C9EC07F00CD097
:101966009851010ADDE09851020ADEE09851030A17
:10197600E0E09851040AEFE00201A76B7BD7FFD79E
:101C080010EE16F0820E006E030E016E860EF66E52
:0E1C1800190EF76E000EF86E97EC06F0120033
:06198600205761736800A8
:07198C002052696E73650033
:071993002052696E7365002C
:06199A0020576173680094
:0219A000200025
:0619A200205370696E0085
:0719A8002052696E73650017
:0719AF00205370696E200057
:0719B6002054494D453A00A1
:0119BD000029
:0219BE00200007
:0219C000200005
:0219C200200003
:0B19C4002050524F4752414D3A200086
:0119CF000017
:0619D0002054494D4500C2
:1019D6002042342D5354415254202042352D50413B
:0419E6005553450010
:0219EA002000DB
:0919EC0020284D4D3A5353290007
:0C19F5002046554E4354494F4E202D0013
:0E1A010020535441525420425554544F4E002D
:0E1A0F002020202020204F52202020202000C8
:0F1A1D00204241434B2020425554544F4E20004D
:101A2C00205374617274696E67207468652020207D
:011A3C0000A9
:101A3D002057617368696E67204D616368696E65D3
:011A4D000098
:0E1A4E0020504C454153452050524553530003
:021A5C00230065
:021A5E00000086
:021A6000230061
:101A6200202020205354415254494E472054484587
:011A72000073
:101A7300202057415348494E47204D414348494E42
:021A830045001C
:101A850020507265737320535441525420746F0073
:101A950020436C6F746873206172652052656D6FA9
:041AA50076656400FE
:0D1AA90020444F4F52203A204F50454E0030
:0E1AB60020506C6561736520436C6F73650092
:021AC400200000
:101AC6002050726F6772616D20436F6D706C657424
:041AD6006564200023
:0C1ADA002046756E6374696F6E202D004D
:061AE6002054494D4500AB
:101AEC0020352D53544152542020362D50415553FE
:021AFC004500A3
:011AFE0000E7
:0D1AFF00205741544552204C4556454C009F
:011B0C0001D7
:101B0D00517569636B0000000000000000000000CB
:101B1D0042756C6B790000000000000000000000B1
:101B2D0047656E746C650000000000000000000049
:101B3D005768697465730000000000000000000024
:101B4D005065726D616E656E7420507265737300B1
:101B5D00436F74746F6E204379636C6500000000F1
:101B6D00576F6F6C204379636C65000000000000B7
:101B7D0053706F7274204379636C65000000000030
:101B8D0052696E736520616E64205370696E00003A
:101B9D005370696E206F6E6C7900000000000000BC
:101BAD0057617368204F6E6C7900000000000000D3
:101BBD00417175612053746F726500000000000063
:031BCD002D3E00AA
:101BD0002057415348494E472050524F4752414D9C
:011BE0000004
:031BE1002D3E0096
:101BE4004175746F0000004C6F77000000004D6574
:101BF4006469756D00486967680000004D6178008C
:031C0400000000DD
:011C070000DC
:020000040030CA
:0D000100281F3CFFBF81FF0FC00FE00F4024
:00000001FF
